:020000040801F1
:1080000000060120A992010871410908CD40090824
:1080100039410908CD40090805410908AB9201081A
:10802000AB920108AB920108AB92010869D10B0831
:10803000AB920108AB920108AB920108AB92010828
:10804000AB920108AB920108AB920108AB92010818
:10805000AB920108AB92010865E40B088DE40B08B4
:10806000B5E40B08DDE40B0805E50B0809910B08E6
:1080700031910B085D910B0889910B08B5910B08A4
:10808000DD910B0809920B0889900B08AB9201084F
:10809000AB920108AB920108AB9201082DE50B08E9
:1080A00079E60B087DE60B0891E60B0895E60B08D0
:1080B00099E60B08A9E60B08BDE60B0879970B08B3
:1080C0009D980B08AB920108AB920108AB92010896
:1080D000AB92010801E60B0815E60B0829E60B0830
:1080E00091E50B08AB920108AB920108E5E60B089D
:1080F000E9E60B08FDE60B0801E70B0835920B08D3
:10810000AB920108AB920108D1E60B08AB920108D3
:108110003DE60B08AB920108AB920108AB92010857
:1081200061920B0889920B08B5920B08E1920B083B
:108130000D930B08AB920108AB920108AB920108BA
:10814000AB920108AB920108AB9201087DD90B08F4
:1081500035930B0861930B088D930B0851E60B08C0
:10816000AB920108AB920108AB920108AB920108F7
:10817000AB920108AB920108AB920108AB920108E7
:10818000AB920108AB92010865E60B08AB920108BF
:10819000AB920108AB920108AB920108AB920108C7
:1081A000AB920108AB920108AB920108AB920108B7
:1081B000AB920108AB920108AB920108AB920108A7
:1081C000AB920108AB920108AB920108AB92010897
:1081D000AB920108AB920108AB920108AB92010887
:1081E000AB920108AB920108AB920108AB92010877
:1081F000AB920108AB920108AB920108AB92010867
:10820000D5C201082D9B0208E906040891D505088E
:108210007DDB0508D5410608F1920608C99A0608D3
:10822000FD9D0608F92007081DA4070849D907087D
:10823000393A090831FE090841880A0841040B0847
:10824000FD290B08B53D0B08896C0B085D720B0806
:1082500081F0004102E000BF83F0004330B54FEAF7
:1082600041044FEA430594EA050F08BF90EA020F64
:108270001FBF54EA000C55EA020C7FEA645C7FEAF7
:10828000655C00F0E2804FEA5454D4EB5555B8BF1A
:108290006D420CDD2C4480EA020281EA030382EA8B
:1082A000000083EA010180EA020281EA0303362D1D
:1082B00088BF30BD11F0004F4FEA01314FF4801CF0
:1082C0004CEA113102D0404261EB410113F0004F02
:1082D0004FEA03334CEA133302D0524263EB4303B9
:1082E00094EA050F00F0A780A4F10104D5F1200E57
:1082F0000DDB02FA0EFC22FA05F2801841F10001B2
:1083000003FA0EF2801843FA05F359410EE0A5F185
:1083100020050EF1200E012A03FA0EFC28BF4CF0B6
:10832000020C43FA05F3C01851EBE37101F000456C
:1083300007D54FF0000EDCF1000C7EEB00006EEB79
:108340000101B1F5801F1BD3B1F5001F0CD3490803
:108350005FEA30004FEA3C0C04F101044FEA44525A
:1083600012F5800F80F09A80BCF1004F08BF5FEAE1
:10837000500C50F1000041EB045141EA050130BDC1
:108380005FEA4C0C404141EB0101013C28BFB1F5D3
:10839000801FE9D291F0000F04BF01460020B1FA1E
:1083A00081F308BF2033A3F10B03B3F120020CDAF1
:1083B0000C3208DD02F1140CC2F10C0201FA0CF0CF
:1083C00021FA02F10CE002F11402D8BFC2F1200C34
:1083D00001FA02F120FA0CFCDCBF41EA0C019040EA
:1083E000E41AA2BF01EB0451294330BD6FEA040433
:1083F0001F3C1CDA0C340EDC04F11404C4F120021E
:1084000020FA04F001FA02F340EA030021FA04F32F
:1084100045EA030130BDC4F10C04C4F1200220FA86
:1084200002F001FA04F340EA0300294630BD21FAC4
:1084300004F0294630BD94F0000F83F4801306BF8A
:1084400081F480110134013D4EE77FEA645C18BF7E
:108450007FEA655C29D094EA050F08BF90EA020F15
:1084600005D054EA000C04BF1946104630BD91EA0D
:10847000030F1EBF0021002030BD5FEA545C05D110
:108480004000494128BF41F0004130BD14F580044F
:108490003CBF01F5801130BD01F0004545F0FE41C3
:1084A00041F470014FF0000030BD7FEA645C1ABFF8
:1084B000194610467FEA655C1CBF0B46024650EA2F
:1084C000013406BF52EA033591EA030F41F400215B
:1084D00030BD00BF90F0000F04BF0021704730B5E1
:1084E0004FF4806404F132044FF000054FF00001B6
:1084F00050E700BF90F0000F04BF0021704730B577
:108500004FF4806404F1320410F0004548BF40424B
:108510004FF000013EE700BF42004FEAE2014FEAA0
:1085200031014FEA02701FBF12F07F4393F07F4F7B
:1085300081F06051704732F07F4208BF704793F07E
:108540007F4F04BF41F40021704730B54FF4607491
:1085500001F0004521F000411CE700BF50EA010294
:1085600008BF704730B54FF000050AE050EA01023D
:1085700008BF704730B511F0004502D5404261EBAD
:1085800041014FF4806404F132045FEA915C3FF4EE
:10859000D8AE4FF003025FEADC0C18BF03325FEA8B
:1085A000DC0C18BF033202EBDC02C2F1200300FA3C
:1085B00003FC20FA02F001FA03FE40EA0E0021FA61
:1085C00002F11444BDE600BF70B54FF0FF0C4CF44F
:1085D000E06C1CEA11541DBF1CEA135594EA0C0F01
:1085E00095EA0C0F00F0DEF82C4481EA030621EA3C
:1085F0004C5123EA4C5350EA013518BF52EA033577
:1086000041F4801143F4801338D0A0FB02CE4FF028
:108610000005E1FB02E506F00042E0FB03E54FF058
:108620000006E1FB03569CF0000F18BF4EF0010E50
:10863000A4F1FF04B6F5007F64F5407404D25FEA4C
:108640004E0E6D4146EB060642EAC62141EA5551FF
:108650004FEAC52040EA5E504FEACE2EB4F1FD0C41
:1086600088BFBCF5E06F1ED8BEF1004F08BF5FEABF
:10867000500E50F1000041EB045170BD06F0004671
:1086800046EA010140EA020081EA0301B4EB5C041E
:10869000C2BFD4EB0C0541EA045170BD41F4801116
:1086A0004FF0000E013C00F3AB8014F1360FDEBF3B
:1086B000002001F0004170BDC4F10004203C35DA17
:1086C0000C341BDC04F11404C4F1200500FA05F39A
:1086D00020FA04F001FA05F240EA020001F000423B
:1086E00021F0004110EBD37021FA04F642EB0601B1
:1086F0005EEA430E08BF20EAD37070BDC4F10C04DB
:10870000C4F1200500FA04F320FA05F001FA04F29E
:1087100040EA020001F0004110EBD37041F100018A
:108720005EEA430E08BF20EAD37070BDC4F1200595
:1087300000FA05F24EEA020E20FA04F301FA05F2FD
:1087400043EA020321FA04F001F0004121FA04F2A5
:1087500020EA020000EBD3705EEA430E08BF20EA75
:10876000D37070BD94F0000F0FD101F000464000AF
:1087700041EB010111F4801F08BF013CF7D041EA31
:10878000060195F0000F18BF704703F00046520035
:1087900043EB030313F4801F08BF013DF7D043EA06
:1087A0000603704794EA0C0F0CEA135518BF95EABC
:1087B0000C0F0CD050EA410618BF52EA4306D1D143
:1087C00081EA030101F000414FF0000070BD50EA62
:1087D000410606BF1046194652EA430619D094EAEC
:1087E0000C0F02D150EA013613D195EA0C0F05D1D6
:1087F00052EA03361CBF104619460AD181EA03012A
:1088000001F0004141F0FE4141F470014FF00000E1
:1088100070BD41F0FE4141F4780170BD70B54FF07C
:10882000FF0C4CF4E06C1CEA11541DBF1CEA1355FC
:1088300094EA0C0F95EA0C0F00F0A7F8A4EB0504DE
:1088400081EA030E52EA03354FEA013100F08880D5
:108850004FEA03334FF0805545EA131343EA12639E
:108860004FEA022245EA111545EA10654FEA002653
:108870000EF000419D4208BF964244F1FD0404F50C
:10888000407402D25B084FEA3202B61A65EB030568
:108890005B084FEA32024FF480104FF4002CB6EB25
:1088A000020E75EB030E22BFB61A754640EA0C00A5
:1088B0005B084FEA3202B6EB020E75EB030E22BFE5
:1088C000B61A754640EA5C005B084FEA3202B6EB26
:1088D000020E75EB030E22BFB61A754640EA9C00E5
:1088E0005B084FEA3202B6EB020E75EB030E22BFB5
:1088F000B61A754640EADC0055EA060E18D04FEA73
:10890000051545EA16754FEA06164FEAC30343EA12
:1089100052734FEAC2025FEA1C1CC0D111F4801FDF
:108920000BD141EA00014FF000004FF0004CB6E7D8
:1089300011F4801F04BF01430020B4F1FD0C88BF77
:10894000BCF5E06F3FF6AFAEB5EB030C04BFB6EB82
:10895000020C5FEA500C50F1000041EB045170BD75
:108960000EF0004E4EEA113114EB5C04C2BFD4EBA2
:108970000C0541EA045170BD41F480114FF0000E26
:10898000013C90E645EA060E8DE60CEA135594EAA2
:108990000C0F08BF95EA0C0F3FF43BAF94EA0C0FA5
:1089A0000AD150EA01347FF434AF95EA0C0F7FF41A
:1089B00025AF104619462CE795EA0C0F06D152EA6E
:1089C00003353FF4FDAE1046194622E750EA410652
:1089D00018BF52EA43067FF4C5AE50EA41047FF463
:1089E0000DAF52EA43057FF4EBAE12E74FF0FF3CC8
:1089F00006E000BF4FF0010C02E000BF4FF0010C99
:108A00004DF804CD4FEA410C7FEA6C5C4FEA430C11
:108A100018BF7FEA6C5C1BD001B050EA410C0CBF60
:108A200052EA430C91EA030F02BF90EA020F0020C2
:108A3000704710F1000F91EA030F58BF994208BF29
:108A400090422CBFD8176FEAE37040F001007047E6
:108A50004FEA410C7FEA6C5C02D150EA013C07D13D
:108A60004FEA430C7FEA6C5CD6D152EA033CD3D088
:108A70005DF8040B704700BF8446104662468C4682
:108A80001946634600E000BF01B5FFF7B7FF0028B5
:108A900048BF10F1000F01BD4DF808EDFFF7F4FFDE
:108AA0000CBF012000205DF808FB00BF4DF808ED69
:108AB000FFF7EAFF34BF012000205DF808FB00BF8C
:108AC0004DF808EDFFF7E0FF94BF012000205DF8AE
:108AD00008FB00BF4DF808EDFFF7CEFF94BF012063
:108AE00000205DF808FB00BF4DF808EDFFF7C4FF5C
:108AF00034BF012000205DF808FB00BF4FEA410CA5
:108B00007FEA6C5C02D150EA013C0AD14FEA430C87
:108B10007FEA6C5C02D152EA033C02D14FF00000C4
:108B200070474FF0010070474FEA410212F5001202
:108B300015D211D56FF47873B3EB625212D94FEAA4
:108B4000C12343F0004343EA505311F0004F23FA8E
:108B500002F018BF404270474FF00000704750EAE3
:108B6000013005D111F0004008BF6FF000407047A0
:108B70004FF00000704700BF4A0011D212F50012FA
:108B800011D20DD56FF47873B3EB62520ED44FEA65
:108B9000C12343F0004343EA505323FA02F07047E5
:108BA0004FF00000704750EA013002D14FF0FF3023
:108BB00070474FF0000070474FEA4102B2F1E043C6
:108BC00024BFB3F5001CDCF1FE5C0DD901F0004CB4
:108BD0004FEAC0024CEA5070B2F1004F40EB830004
:108BE00008BF20F00100704711F0804F21D113F130
:108BF0003872BCBF01F00040704741F480114FEA69
:108C00005252C2F11802C2F1200C10FA0CF320FAF1
:108C100002F018BF40F001004FEAC1234FEAD3230E
:108C200003FA0CFC40EA0C0023FA02F34FEA430378
:108C3000CCE77FEA625307D150EA01331EBF4FF001
:108C4000FE4040F44000704701F0004040F0FE401C
:108C500040F40000704700BF80F0004002E000BF19
:108C600081F0004142001FBF5FEA410392EA030F17
:108C70007FEA226C7FEA236C6AD04FEA1262D2EB61
:108C80001363C1BFD218414048404140B8BF5B4266
:108C9000192B88BF704710F0004F40F4000020F0FF
:108CA0007F4018BF404211F0004F41F4000121F015
:108CB0007F4118BF494292EA030F3FD0A2F101025F
:108CC00041FA03FC10EB0C00C3F1200301FA03F19D
:108CD00000F0004302D5494260EB4000B0F5000FC0
:108CE00013D3B0F1807F06D340084FEA310102F17F
:108CF0000102FE2A51D2B1F1004F40EBC25008BF31
:108D000020F0010040EA03007047490040EB0000FA
:108D1000013A28BFB0F5000FEDD2B0FA80FCACF1FB
:108D2000080CB2EB0C0200FA0CF0AABF00EBC25028
:108D300052421843BCBFD0401843704792F0000F16
:108D400081F4000106BF80F400000132013BB5E769
:108D50004FEA41037FEA226C18BF7FEA236C21D0DF
:108D600092EA030F04D092F0000F08BF0846704744
:108D700090EA010F1CBF0020704712F07F4F04D112
:108D8000400028BF40F00040704712F100723CBF25
:108D900000F50000704700F0004343F0FE4040F44F
:108DA000000070477FEA226216BF08467FEA23630D
:108DB0000146420206BF5FEA412390EA010F40F4F8
:108DC000800070474FF0000304E000BF10F0004344
:108DD00048BF40425FEA000C08BF704743F096432B
:108DE00001464FF000001CE050EA010208BF704746
:108DF0004FF000030AE000BF50EA010208BF7047CD
:108E000011F0004302D5404261EB41015FEA010CE1
:108E100002BF84460146002043F0B64308BFA3F1D9
:108E20008053A3F50003BCFA8CF2083AA3EBC253BB
:108E300010DB01FA02FC634400FA02FCC2F12002DA
:108E4000BCF1004F20FA02F243EB020008BF20F011
:108E50000100704702F1200201FA02FCC2F1200277
:108E600050EA4C0021FA02F243EB020008BF20EA6C
:108E7000DC7070477BB972B90029BEBF00204FF08B
:108E8000004106E008BF00281CBF6FF000414FF012
:108E9000FF3000F007BAADF1080C6DE904CE0029EF
:108EA00009DB002B1ADB00F095F8DDF804E0DDE9C2
:108EB000022304B07047404261EB4101002B1BDBF1
:108EC00000F088F8DDF804E0DDE9022304B0404258
:108ED00061EB4101524263EB43037047524263EB43
:108EE000430300F077F8DDF804E0DDE9022304B085
:108EF000404261EB41017047524263EB430300F093
:108F000069F8DDF804E0DDE9022304B0524263EBC6
:108F10004303704753B94AB9002908BF00281CBF52
:108F20004FF0FF314FF0FF3000F0BCB9ADF1080C4D
:108F30006DE904CE00F04EF8DDF804E0DDE902232F
:108F400004B07047430803F05533C01A830803F098
:108F5000333300F03330184400EB101000F00F30C2
:108F600000EB002000EB0040000E704707EE900A77
:108F7000F5EEC07AF1EE10FA01D400F00BB8F1EE84
:108F8000677A08B517EE900A00F004F8404261EBEA
:108F9000410108BDD0B5FFF7BFFA0C4B00220646D1
:108FA0000F46FFF711FBFFF7E7FD0446FFF792FAC4
:108FB000074B0022FFF708FB02460B4630463946B6
:108FC000FFF74AF9FFF7D8FD2146D0BD0000F03D7C
:108FD0000000F0412DE9F047089D04468E46002B25
:108FE0004DD18A42944669D9B2FA82F252B101FA5D
:108FF00002F3C2F1200120FA01F10CFA02FC41EA6D
:10900000030E94404FEA1C48210CBEFBF8F61FFAF1
:109010008CF708FB16E341EA034306FB07F199428C
:109020000AD91CEB030306F1FF3080F01F8199423F
:1090300040F21C81023E63445B1AA4B2B3FBF8F019
:1090400008FB103344EA034400FB07F7A7420AD9A0
:109050001CEB040400F1FF3380F00A81A74240F2C8
:1090600007816444023840EA0640E41B00261DB133
:10907000D4400023C5E900433146BDE8F0878B4268
:1090800009D9002D00F0EF800026C5E90001304627
:109090003146BDE8F087B3FA83F6002E4AD18B4201
:1090A00002D3824200F2F980841A61EB03030120AB
:1090B0009E46002DE0D0C5E9004EDDE702B9FFDE97
:1090C000B2FA82F2002A40F09280A1EB0C014FEA42
:1090D0001C471FFA8CFE0126200CB1FBF7F307FB9F
:1090E000131140EA01410EFB03F0884208D91CEB42
:1090F000010103F1FF3802D2884200F2CB804346DF
:10910000091AA4B2B1FBF7F007FB101144EA0144BD
:109110000EFB00FEA64508D91CEB040400F1FF314C
:1091200002D2A64500F2BB800846A4EB0E0440EA3A
:1091300003409CE7C6F12007B34022FA07FC4CEA43
:10914000030C20FA07F401FA06F31C43F9404FEA36
:109150001C4900FA06F3B1FBF9F8200C1FFA8CFE4B
:1091600009FB181140EA014108FB0EF0884202FA9F
:1091700006F20BD91CEB010108F1FF3A80F0888060
:10918000884240F28580A8F102086144091AA4B21D
:10919000B1FBF9F009FB101144EA014100FB0EFE9E
:1091A0008E4508D91CEB010100F1FF346CD28E45CD
:1091B0006AD90238614440EA0840A0FB0294A1EB5E
:1091C0000E01A142C846A64656D353D05DB1B3EBBB
:1091D000080261EB0E0101FA07F722FA06F3F140EB
:1091E0001F43C5E9007100263146BDE8F087C2F192
:1091F0002003D8400CFA02FC21FA03F3914001430A
:109200004FEA1C471FFA8CFEB3FBF7F007FB103642
:109210000B0C43EA064300FB0EF69E4204FA02F4EE
:1092200008D91CEB030300F1FF382FD29E422DD941
:10923000023863449B1B89B2B3FBF7F607FB163376
:1092400041EA034106FB0EF38B4208D91CEB0101F6
:1092500006F1FF3816D28B4214D9023E6144C91A76
:1092600046EA004638E72E46284605E70646E3E686
:109270001846F8E64B45A9D2B9EB020864EB0C0E90
:109280000138A3E74646EAE7204694E74046D1E79F
:10929000D0467BE7023B614432E7304609E764444D
:1092A000023842E7704700BF02E000F000F8FEE736
:1092B00072B6374880F30888364880F30988364804
:1092C0003649086040F20000CCF200004EF63471DE
:1092D000CEF200010860BFF34F8FBFF36F8F40F2F3
:1092E0000000C0F2F0004EF68851CEF20001086096
:1092F000BFF34F8FBFF36F8F4FF00000E1EE100A06
:109300004EF63C71CEF200010860062080F314880E
:10931000BFF36F8FA3F08CFFA4F078FF4FF05530B0
:109320001F491B4A91423CBF41F8040BFAE71D4913
:10933000184A91423CBF41F8040BFAE71A491B4A0C
:109340001B4B9A423EBF51F8040B42F8040BF8E75E
:1093500000201849184A91423CBF41F8040BFAE733
:10936000A3F0A4FFA4F0B2FF144C154DAC4203DAF5
:1093700054F8041B8847F9E702F09CFF114C124D8A
:10938000AC4203DA54F8041B8847F9E7A3F08CBF1A
:1093900000060120002201200080010808ED00E005
:1093A000000001200006012028270E0800220120CD
:1093B000AC250120B02501209C5502200082010827
:1093C0005082010850820108508201082DE9F04FB7
:1093D0002DED108AC1F80CD0D0F80CD0BDEC108A5D
:1093E000BDE8F08F002383F311882846A0470020B2
:1093F000A2F064FFFEE7A2F0E9FD00DFFEE7000057
:1094000001F0FF01102A2BDB10F0070F08D010F835
:10941000013B013A8B422DD010F0070F42B3F6D139
:10942000F0B441EA012141EA014122F007047FF052
:1094300000070023F0E80256083C85EA010586EAA9
:10944000010685FA47F5A3FA87F586FA47F6A5FAE5
:1094500087F68EB9EED1F0BC01F0FF0102F00702F1
:1094600032B110F8013B013A83EA010313B1F8D19C
:109470000020704701387047002D06BF354603387D
:10948000073815F0010F07D1013015F4807F02BFB6
:10949000013015F4C03F0130F0BC0138704700BF07
:1094A00010F8012B11F8013B012A28BF9A42F7D08E
:1094B000D01A7047034613F8012B002AFBD1181A63
:1094C0000138704738B50022002304460D46FFF7E7
:1094D000EDFA28B920462946BDE8384000F00AB820
:1094E000204605F1004100F005F8404261EB4101E2
:1094F00038BD00BFD0B50C4B002206460F46FFF723
:1095000063F8FFF739FB0446FEF7E4FF074B002240
:10951000FFF75AF802460B4630463946FEF79CFEE6
:10952000FFF72AFB2146D0BD0000F03D0000F041CE
:1095300070B50D4B1C68656D2B681E686EF050FC95
:10954000014630B1606D03681B6A9847411E18BF21
:1095500001212846B0474CF0E9FC636DBDE870403E
:1095600093F89C104BF034BEB025012070B58EB03E
:109570002E2205460E4602A800210191A7F0A4FE66
:109580000C48322201A961F0C3F9044638B99DF9AB
:1095900004303BB9084A314628466EF0A5FE204605
:1095A0000EB070BD054A01AB314628466EF09CFEF8
:1095B000F5E700BFE45E01204C4C0C08BE4C0C08E3
:1095C00013B50191202104466EF016FC90B10A4BB0
:1095D000DFED0A7A93ED3F7A019AB4EEE77AF1EE85
:1095E00010FA05DA2046064B20216EF00DFC002013
:1095F00002B010BD0120FBE7B85501200000003487
:10960000644C0C0837B5094B01910546D3F8CC05DD
:1096100003689B6998470199044618B9044A28468B
:109620006EF062FE204603B030BD00BFB875012069
:10963000784C0C0830B585B00446039140216EF09B
:10964000DBFB90B31A49039AD1F8F83CD1F8FC1C23
:10965000B3F90A5040F21450854214DCB3F90E50AD
:1096600040F2A3639D421ADDB1F90A50854214DC31
:10967000B1F90E10994216DD1146204605B0BDE83D
:1096800030406EF0FFBC0B4B00930B4B204640214B
:109690006EF0BAFB002005B030BD084BF4E7054B77
:1096A0000093074BF2E7054BFAE70120F3E700BF11
:1096B000B8550120444C0C088C4C0C08249A0C081A
:1096C000A24C0C082DE9F041DFF8A4800546D8F83B
:1096D000CC0503688EB05B6A0E469847F0B1314600
:1096E00028466EF0EBFB044600B30AF03FFC00276F
:1096F00004462E22394602A80197A7F0E5FD204630
:10970000322301AA01210AF08BF9044690B9144AC8
:1097100001AB314628466EF0E7FD07E0D8F8CC05EE
:1097200003689B6A98470028D9D1012420460EB0CF
:10973000BDE8F08198F8E43533B10A4A314628464D
:109740006EF0D2FD3C46F1E7074803F0D9F8044635
:109750000028EAD1054A314628466EF0C5FDE5E706
:10976000B84C0C08C14C0C08B8250120CE4C0C0894
:10977000B87501202DE97043057F80468946ADB953
:10978000836823B90368BDE870435B6B18471648CC
:1097900090F9E838002B0CDD043077F07DFE0546AB
:1097A00038B9124A494640466EF09EFD2846BDE84B
:1097B0007083494640466FF06BFA494606460C48AE
:1097C00078F0A8FE494606404046FFF7CFFEF5B2C6
:1097D000054049464046FFF7F3FE494605404046EE
:1097E000FFF710FF0540E1E7B8550120E84C0C08F1
:1097F000744F012083680BB16FF066B80120704789
:1098000038B505466FF0FCFA044630B90D4A1378B6
:1098100043F001031370204638BD01210A4872F05D
:1098200013FB0A4806F0B2FB094877F0C7FE28464A
:10983000FFF77EFE54F0D0FD064A06214EF0BEFB37
:10984000E9E700BF4C860120F45301200C8501207C
:10985000BC5501200C4D0C0838B505466FF08AFB4D
:10986000044698B10A48D0F8CC2500F658439A42ED
:1098700003D000F5496026F0C1FC2846FFF758FEEA
:1098800054F0AAFD034A06214EF098FB204638BD4D
:10989000B87501201C4D0C0801485FF01FBA00BFCD
:1098A000E44301207047000070470000704700004B
:1098B000002070470020704701207047002070474B
:1098C0007047000000207047C82070470120704793
:1098D0000120704790F888308B4286BF00EB8100F2
:1098E000D0F88C000020704790F888308B4286BFFB
:1098F00000EB8100D0F88C0000207047024BD3F8B9
:10990000CC0503681B681847B8750120044BD3EDDC
:10991000007AFDEEE77A17EE903A18B2704700BF72
:10992000984F0120014B93F8380F7047B83501204C
:10993000034B93F9C00F003818BF0120704700BFD8
:10994000B8350120014B93F93A0F7047B835012023
:10995000054B03F5A04203F5B643D2F8CC05C01A77
:1099600018BF0120704700BFB825012070470000D4
:1099700010B50F4BD3F8CC4523682046DB689847D9
:10998000A8B123682046DB6B9847B2EE047AC0EE9C
:10999000077A9FED087AF4EEC77AF1EE10FA58BF15
:1099A000F0EE477AFCEEE77A17EE903A98B210BDE7
:1099B000B875012000FF7F477047000008B50448D4
:1099C00007F014FF00280CBF0A200B2008BD00BFC1
:1099D000B825012038B5154DD5F8CC050368DB69ED
:1099E00098470028D5F8CC050368DB680CBF012434
:1099F0004124984708B144F008040D4BD5F8CC2514
:109A000093F9F410002903F52C530ADD9A420AD089
:109A100044F0400407486EF0E3F920B144F08004BC
:109A200001E09A42F6D144F0010038BDB87501203A
:109A3000B8550120E463012000B513EE103A8DB053
:109A40006222CDF8253013EE903ACDF8293021234B
:109A5000CDE900328DF82410192303AAC2218DED1F
:109A6000030ACDED040A8DED051ACDED061A8DED34
:109A7000072ACDED082A4FF0FFFA0DB05DF804FB80
:109A80002DE9F0412DED028B1D4F9FED1E8A002424
:109A900084B005462646F0EE488A07F5566897F8E2
:109AA000E03FE1B28B4216D9404644F02BFA80B138
:109AB000436836B1D3ED007AF4EEE78AF1EE10FA9E
:109AC00007DDD3ED008A9B8808EE103AB8EE488A8D
:109AD00001260134E3E76EB108235322CDE90032B9
:109AE000287CCDED028A0DEB0302AD218DED038ABA
:109AF0004FF0C2FA04B0BDEC028BBDE8F08100BFAC
:109B0000B82501200000000070B59F4DB5F8483F12
:109B1000D90704462AD59D4BDFED9D7AD3ED000A87
:109B200013ED010AD3ED063A93ED073AD3ED042A7B
:109B300093ED032AD3ED021A93ED051A007C60EE33
:109B4000A70A20EE270A0521FFF776FF207C4FF0B9
:109B500015FA0646207C50F031F900F121039E42AF
:109B600004D2207CBDE870404EF012BCB5F8483FEE
:109B70009A071FD5874B207CD3ED003A93ED013A2D
:109B800053ED022A13ED032A53ED041A13ED011AC3
:109B900053ED060A13ED070A0421FFF74DFF207C61
:109BA0004FF0ECF90646207C50F008F900F1210353
:109BB0009E42D6D3B5F8483F5B0725D5764BDFEDFF
:109BC000747A53ED060A13ED070AD3ED003A93EDCC
:109BD000013A53ED022A13ED032A53ED041A13ED53
:109BE000011A207C60EEA70A20EE270A0221FFF767
:109BF00023FF207C4FF0C2F90646207C50F0DEF8AF
:109C000000F121039E42ACD3B5F8483F1E0722D590
:109C1000002162486BF0C0FC0721D0ED2A3A90ED9C
:109C20002B3AD0ED282A90ED272AD0ED261A90ED78
:109C3000291AD0ED240A90ED230A207CFFF7FCFEC0
:109C4000207C4FF09BF90646207C50F0B7F800F1DD
:109C500021039E4285D3B5F8483FD80623D501217C
:109C60004E486BF099FC0821D0ED2A3A90ED2B3A42
:109C7000D0ED282A90ED272AD0ED261A90ED291A4A
:109C8000D0ED240A90ED230A207CFFF7D5FE207C3E
:109C90004FF074F90646207C50F090F800F1210353
:109CA0009E42FFF45EAFB5F8483F990620D53C4B85
:109CB000207CD3ED003A93ED013A53ED022A13EDE7
:109CC000032A53ED041A13ED011A53ED060A13ED9E
:109CD000070A0921FFF7B0FE207C4FF04FF9064636
:109CE000207C50F06BF800F121039E42FFF439AF65
:109CF000B5F8483F5A0620D52A4B207CD3ED003AD0
:109D000093ED013A53ED022A13ED032A53ED041AA1
:109D100013ED011A53ED060A13ED070A0A21FFF7A6
:109D20008BFE207C4FF02AF90646207C50F046F846
:109D300000F121039E42FFF414AFB5F8483F1B0623
:109D400020D5194B207CD3ED003A93ED013A53ED29
:109D5000022A13ED032A53ED041A13ED011A53EDF1
:109D6000060A13ED070A0B21FFF766FE207C4FF071
:109D700005F90546207C50F021F800F121039D42B1
:109D8000FFF4EFAE70BD00BFB83501209450012044
:109D9000E02E6542F45201205C520120B04D0120BA
:109DA000B8530120BC600120E460012038B5C578BB
:109DB0000B46352D044628BF35253522002118468F
:109DC000A7F082FA2A4604F10C01BDE83840A7F05A
:109DD00031BA000037B504460D46064801921146D7
:109DE00072F002FD019A2946204603B0BDE83040DA
:109DF00053F00ABFF0540120014802F041BB00BFFC
:109E0000B8250120014802F0E3BA00BFB8250120BF
:109E100030B58B8BD12B85B00C4654D00BD8B22BE0
:109E20001AD0C22B21D0142B0DD0214605B0BDE88D
:109E3000304055F09DBDD52B26D0B3F5967FF4D19B
:109E40003049022201E030490222304807F018FB75
:109E5000C0B9042005B030BD2D4B91ED010AD3F8F7
:109E6000CC050368DB6C9847F2E7294B91ED000ABB
:109E7000D3F8CC55F7EE000A20F040FA0146284608
:109E800003F0E8FA0020E5E7214DD5F8CC0503689A
:109E90001B6998470028DCD0DFED1E7A94ED000A9C
:109EA000D4ED010A20EE270AD4ED027AF5EEC07A4D
:109EB000F1EE10FA05F53E6002DD05F0F1FAE1E79A
:109EC00005F0C2FADEE7D1ED017AFCEEE77ACDEDDE
:109ED000027AD1ED007AFCEEE77ACDED037AD1ED8E
:109EE000027A9DF80C20FDEEE77A17EE903A1BB24D
:109EF000009391ED030A9DF808300146034806F0EF
:109F00002BFBA7E71082012058840120B8250120EF
:109F1000B87501200000C8422DE9FF414FF000084C
:109F2000CDE900280F4F9FED100A0C460646154656
:109F30004FF47A73B1F90220D7F8F81C8DED030ABB
:109F400054F0F0F8CDE900589DED030AB4F904206F
:109F5000D7F8FC1C4FF47A73304654F0E3F804B0A1
:109F6000BDE8F081B85501200000FA4408B550F072
:109F700079FB40F4E67040F0010008BD13B50D4BCD
:109F8000D3F8CC4523682046DB68984778B123682E
:109F90002046DB6A984720F01FFAF6EE007A20EEA2
:109FA000270AFCEEC07ACDED017A9DF8040002B0DC
:109FB00010BD00BFB875012013B54FF45070CDE946
:109FC00000210FF0B9FD044628B1DDE9002154F06D
:109FD00045FE024B2360204602B010BD484F0C08DE
:109FE00010B504460FF0AEFD204610BD0B4B93F8A4
:109FF000DC257AB993F8E42562B9D3F8CC0503F5EA
:10A000003062904208D003F63833984214BF0420DF
:10A01000032070470520704702207047B875012063
:10A0200070B5F7EE000A91ED050A05460C46164696
:10A0300020F064F938B10D4877F0CAFA08B1002071
:10A0400070BD0420FCE794ED050AF0EE000A20F054
:10A0500055F918B1054877F0C7FAEFE732462146BF
:10A060002846BDE8704050F061BB00BFBC550120E0
:10A0700013B5114B0446D3F8CC050368DB68984749
:10A08000B8B123682046D3F8B8309847F1EE047A87
:10A0900020EE270ADFED097AB4EEE70AF1EE10FAB6
:10A0A00058BFB0EE670AFCEEC07ACDED017A9DF89C
:10A0B000040002B010BD00BFB875012000007F434E
:10A0C00007B50D4877F0E8F990B10C4BDFED0C7A4D
:10A0D00093ED130A20EE270A20F07EF9F6EE007ABF
:10A0E00020EE270AFCEEC07ACDED017A9DF804003F
:10A0F00003B05DF804FB00BFBC550120B85501203A
:10A10000E02E654207B50E4877F0C6F9A8B10D4BB1
:10A11000D3ED307AB1EE047A67EE877A9FED0A7A52
:10A12000F4EEC77AF1EE10FA58BFF0EE477AFCEE83
:10A13000E77ACDED017A9DF8040003B05DF804FBE9
:10A14000BC550120B855012000007F4310B594B0E4
:10A15000044603A80FF098F91A4BD3F8CC0503680E
:10A1600003A91B6C984750B3247C7AF035F8059B03
:10A17000DDED047A0893069B09930023F8EEE77A55
:10A180009FED117A0B930C930D930E930F931093F5
:10A19000119312934FF6F853ADF84C3000239622EA
:10A1A00067EE877A8DF84E303323CDE90032079081
:10A1B00007AA57212046CDED0A7A4EF05DFF14B074
:10A1C00010BD00BFB87501200AD7233CF0B52DEDB6
:10A1D000028B2C4C0546D4F8CC0503688BB0DB68A9
:10A1E0009847002849D0D4F8CC4527482F7CDFED8C
:10A1F000278A6CF0DBFD236820461B6B60EE288A03
:10A200009847BDEEC00A204610EE103A1EB22368F1
:10A21000DB6A9847BDEEC00A204610EE103A1DB228
:10A220002368DB6B9847DFED1A7A2368B4EEE70A00
:10A23000B0EE408AF1EE10FA5B6B58BFB0EE678A61
:10A2400020469847BCEEC88A0023039305930693E3
:10A2500018EE103AB722ADF824301A23CDE90032B7
:10A260003E2103AA3846CDED048A8DED070AADF8EC
:10A270002060ADF822504EF0FFFE0BB0BDEC028B1B
:10A28000F0BD00BFB8750120FC4F0120E02E6542F3
:10A2900000FF7F4770B52DED048B044688B0294838
:10A2A0009FED298A78F094F8D8B3492057F00CFB39
:10A2B0009FED269A4A20C0EE098A57F005FBC0EEB2
:10A2C000097A68EE888A27EE888A267C79F084FFEE
:10A2D0000546204653F086FFFDEEE88ABDEEC88AAB
:10A2E00018EE903A18EE102AADF80C300023CDE9A4
:10A2F0000533ADF80E30ADF81020ADF812308DF802
:10A300001C30ED221623CDE900328DF81D0002AA83
:10A310002221304602954EF0AFFE08B0BDEC048B12
:10A3200070BD1A2057F0D0FADFED097AC0EE278A07
:10A33000462057F0C9FA9FED077A68EE888AC0EE8A
:10A34000077AC0E7744F012000401C4600007A44A1
:10A3500000A08C450000C8422DE9F04300F50057ED
:10A36000C7B097F8E85704460E46002D35D0702246
:10A37000002106A804F5A044A6F0A6FF04F52E636C
:10A380001868FEF7C9F8012D8046894628D004F6E2
:10A39000E4242068FEF7C0F804460D4679F01CFF5F
:10A3A0004FF47A725043002297F8E83722902392B4
:10A3B00002A9802224A88DF81031CDE90289CDE9C7
:10A3C0000445A6F037FF71228923CDE9003242F21D
:10A3D000283122AA30464EF04FFE47B0BDE8F08348
:10A3E00000240025DAE700003729F7B505460E46B8
:10A3F00036D00AD8192926D024293CD031462846FF
:10A4000003B0BDE8F04054F02FB93B29F6D163F01A
:10A41000E7F80746002839D0262128464DF0CAFF24
:10A420000446B0B100230DF1060231462846ADF8CE
:10A43000063052F037F960B1BDF80620297C384665
:10A4400062F0B6FF05E016214DF0B4FF044618B9DE
:10A450000024204603B0F0BD2846FFF71BFFF8E7B5
:10A4600089214DF0A7FF04460028F1D0297C084837
:10A47000FFF772FFEDE70C214DF09CFF044600282A
:10A48000E6D0297C034877F0BBF8E2E70124E0E757
:10A49000B8250120BC55012030B52DED028BCD78BB
:10A4A00091B0272D0C464FF027024FF0000106A86F
:10A4B00028BF2725A6F008FF04F10C012E4C2A46E0
:10A4C00006A8A6F0B7FED4F8CC0503681B69984728
:10A4D00000284CD09DF83E5015F04001019146D126
:10A4E000FFEE000A40F23630B7EE001A9DED0E0A7C
:10A4F000DFED228A20F01AF80199D4F8CC058DED11
:10A500000E0AB0EE408A02F091FF15F0040F68EEDB
:10A51000000A9FED1B8A1BD0079B0293089B0393A5
:10A52000099B049302A80A9BCDED010A059322F032
:10A530007BFD20EE280ADDED010A20EE080A04F575
:10A540003E6011B0BDEC028BBDE8304004F07CBF32
:10A550009DED0D0A20EE280A04F53E6020EE080A63
:10A5600011B0BDEC028BBDE8304004F0B9BF11B0B2
:10A57000BDEC028B30BD00BFB8750120E02E6542F6
:10A580000000C84238B504460D460548082107F0CA
:10A5900027F9294602462046BDE8384051F0D2B896
:10A5A000B825012070B50E4ED6F8CC05036886B0EC
:10A5B0001B690C46984780B102AD28460EF064FF37
:10A5C00006AB13E903008DE8030004F1080195E8E8
:10A5D0000C0006F53E6005F05FF906B070BD00BFE7
:10A5E000B87501202DE9F04F2DED028BDFF86CA23C
:10A5F0009FB0084610A9FFF7D9FBDAF8CC0503682D
:10A600001B699847002800F0D58004AE30460EF054
:10A610003BFF8A48314609F0BDFA002800F0CA80A5
:10A620009DF874C0BCF1010F04D0ACF10703022BFC
:10A6300000F2C0800AF5AA630FCBBDF8705008ACD9
:10A6400084E80F0015F0030305F0180905F0C00BAE
:10A6500005F4806805F4006702931ED1BCF1070F72
:10A660009DED110ADDED120A14D0ACF1080CBCF11D
:10A67000010F00F2A480724B93ED037AD3ED007AC0
:10A6800060EEC76A67EEA00AE7EE806AE7EE000AAE
:10A69000B0EE660A20460FF0EFF9B9F1000F40F076
:10A6A00093804946DAF8CC0502F0C0FEDDED157A5C
:10A6B0009DED147A8DED030A27EEA70AA7EE070A8F
:10A6C0001FF050FE9DED031A40F28630F1EE410A74
:10A6D0001FF02CFFDDED140AB0EE408A9DED150A47
:10A6E000A4F0DAFBDFED577A9DF8743060EE277A3C
:10A6F000083B9FED550A012B67EE807A0AD8534B31
:10A7000093EDFB0AB8EEC00A30EE270A1FF0B8FE40
:10A71000F0EE407AB8F1000F19D19FED4A0ADDED55
:10A720001A7A9DF8743067EE807A083B9FED460AEE
:10A73000012B67EE807A0AD8444B93EDFB0AB8EE02
:10A74000C00A30EE270A1FF09BFEF0EE407A002F81
:10A750003FD19FED3C0A9DED1B7A27EE007A9FEDDD
:10A760003A0A27EE000AB9F1000F59D105F4406505
:10A77000B5F5406F51D09FED367ADDED146AF4EEF9
:10A78000C76AF1EE10FAFFEE000AB7EE007A88BF52
:10A79000F0EE470A029BFBB90CAD28460EF074FEA2
:10A7A000DDE90E018DE803002A4895E80C002146FA
:10A7B00005F072F81FB0BDEC028BBDE8F08F96E893
:10A7C0000F0084E80F0065E7DFED237AB0EE678ABB
:10A7D000A0E79FED210AC6E7BBF1000FEAD0B5F56F
:10A7E000406F07D168EE200A1A48B0EE670A04F0FD
:10A7F0002BFEDFE7B8F1000F07D0002FDAD168EEAB
:10A80000200A144804F06CFED4E7002FD2D0E9E708
:10A81000002FCFD1DFED100AF3E7F7EE000AB9E71A
:10A82000029B002BB8D0BBF1000FC3D0B8F1000FD2
:10A83000EED1002FBED0DFED080AD5E7A03701200A
:10A84000E8390120E02E65420000C842B8350120F9
:10A85000000000B49881012000000000B8750120BC
:10A860002DE9F04F2DED028BDFF8C4B19BB0084607
:10A870000CA9FFF79BFADBF8CC0503681B69984726
:10A88000002800F0C2809DF864200B2A00F2BD80F1
:10A8900040F66943D340DB0740F1B7800BF5AA636C
:10A8A0000FCBBDF8604004AD14F0030985E80F003C
:10A8B00004F0180804F0C00A04F4806704F4006689
:10A8C0000AD1DDE90D0120F05DFC002800F09D803B
:10A8D0000D9B06930E9B0793B8F1000F66D141467E
:10A8E000DBF8CC0502F0A2FDDDED117A9DED107ACA
:10A8F0008DED030A27EEA70AA7EE070A1FF032FD27
:10A900009DED031A40F2EE30F1EE410A1FF00EFE0B
:10A91000DDED100AB0EE408A9DED110AA4F0BCFAFC
:10A92000DFED3E7A60EE277A9FED3D0A67EE807A92
:10A930004FB99FED3A0ADDED167A67EE807A9FED0A
:10A94000380A67EE807AB6BB9FED340A9DED177A20
:10A9500027EE007A9FED320A27EE000AB8F1000FC9
:10A9600042D104F44064B4F5406F53D09FED2D7A8A
:10A97000DDED106AF4EEC76AF1EE10FAFFEE000AA0
:10A98000B7EE007A88BFF0EE470AB9F1000F2ED07B
:10A99000BAF1000F39D0B4F5406F0FD168EE200A3C
:10A9A0002148B0EE670A04F04FFD2EE0DFED1F7A7C
:10A9B000B0EE678ABCE79FED1D0ACFE737B126BB33
:10A9C00068EE200A184804F08BFD1EE0EEB1E5E7C2
:10A9D000BAF1000F19D01FB9BEB1DFED140ADFE7DD
:10A9E0009EB9DFED120AEDE7B9F1000FF0D108AC26
:10A9F00020460EF049FDDDE90A018DE803000A4812
:10AA000094E80C00294604F047FF1BB0BDEC028B14
:10AA1000BDE8F08FF7EE000AB7E700BFE02E654211
:10AA20000000C842000000B498810120000000002E
:10AA3000B875012030B48D7A4B7A43EA0523CD7A7C
:10AA400043EA0543562B04460A4618D008D8522B31
:10AA50000FD0542B10D02046114630BC54F06EBDA0
:10AA60006D2B01D0A62BF6D12046114630BCFFF746
:10AA700089BD30BCFFF710BD30BCFFF7B3BD30BCA3
:10AA8000FFF7EEBE70B5304D2DED028B0646D5F8C2
:10AA9000CC0591ED018A03688AB01B690C46984782
:10AAA00050B9BDEEC88A18EE103ADB0704D4022074
:10AAB0000AB0BDEC028B70BDD4E9040120F062FB4A
:10AAC0000028F4D0236913B96369002BEFD002A8E2
:10AAD0000EF0DAFC02AA2146304653F061FA002853
:10AAE000E5D0D5F8CC0503681B699847D0B194ED43
:10AAF000000ADFED167AB4EEE70AF1EE10FA1ADA80
:10AB000006AC20460EF0C0FC0AAB13E903008DE84A
:10AB100003000F4894E80C0002A904F0BDFE40B108
:10AB20000020C5E70B4802220F2106F021FD002876
:10AB3000DDD10420BCE7D5F8CC050368DB6C984771
:10AB40000028DDD1F5E700BFB87501200000003412
:10AB500098810120B825012010B58A8BC02A10D019
:10AB6000C22A12D0B22A1FD1114A91ED010AD2F89D
:10AB7000CC050268D26C9047002814BF0020042046
:10AB800010BDBDE81040FFF77DBF094A91ED000AF6
:10AB9000D2F8CC45F7EE000A1FF0B0FB0146204684
:10ABA00002F058FC0020EBE7BDE8104053F086BAF5
:10ABB000B8750120014B93F8360F7047B835012066
:10ABC000084BD3F8CC1503F65472914201BFA3F59C
:10ABD000005393F90000B0FA80F0400918BF00203C
:10ABE000704700BFB8750120084BD3F8CC1503F6A9
:10ABF0005472914207D1A3F5005393F90000431E0C
:10AC00005842584170470020704700BFB875012076
:10AC100038B583691D4D43F4B84383610446D5F8C4
:10AC2000CC0503681B6A984738B1D4E9072342F47E
:10AC3000406243F44063E2612362D5F8CC050368C7
:10AC4000DB68984738B1D4E9072342F4A04243F4C3
:10AC5000A043E26123620E4B1868A8B190F88032DD
:10AC600093B1A36943F48073A361E36943F48073F0
:10AC7000E361002143F046F930B144F031F818B1F6
:10AC8000236A43F48073236238BD00BFB875012086
:10AC9000D48601207FB500F5295604360446304697
:10ACA0006CF084F8DFED1F7A20EE270ADFED1E7AC4
:10ACB00004F58F5020EE270A002301A908300193E4
:10ACC0008DED020A039304F5745507F087FD09F032
:10ACD0004DF909F031F9103504F52B52183269217C
:10ACE00028464AF09DF8284606F5377268214AF052
:10ACF00097F8204601F064FB30B104F53252083277
:10AD0000662128464AF08CF8084B93F9E838002B66
:10AD100006DD04F537522432652128464AF080F8D2
:10AD200004B070BDE02E65420000C842B855012055
:10AD30002DE9F04F044693B0374806F057FD002840
:10AD400066D004F556691921484643F05FF900289A
:10AD50005ED00EA80EF098FB04F58F500EA90830B7
:10AD600008F0B2F904F57458002708F1100894F8B7
:10AD7000E03FFEB2B34245D93146484643F0C2F8FF
:10AD8000054600283CD0836893F92130192B37D130
:10AD900043F0A6FF002833D06B681A6904EB8603E2
:10ADA00003F5A043D3F8EC15914229D0C3F8EC2564
:10ADB0002B680DA91B6A2846984708B900230D93F4
:10ADC00079F012FA82460D988B46FDF7A5FBCDE986
:10ADD0000A016A681068FDF79FFB119A0F4B0692F3
:10ADE000109A01930E4B0093CDE90801CDE904625E
:10ADF000CDE902AB0B4B0C4A0C4940464AF000FE31
:10AE00000137B4E704F5A64048213C3054F0CCFAB1
:10AE100013B0BDE8F08F00BFB82501209F500C088B
:10AE2000A6500C0874500C087B500C089A500C0863
:10AE3000F0B58BB0154606460F462422002101A826
:10AE40001C46A6F041FAA3238DF8043095238DF813
:10AE5000053003238DF8063079F0C6F92B6804938A
:10AE60006B680593AB6806932368CDF807000793DA
:10AE700006F574506368CDF80B1008932422A3687C
:10AE80008DF80F7001A9103009934AF0B9F90BB091
:10AE9000F0BD000030B589B01D220446002168468F
:10AEA000A6F012FAA3238DF8003095238DF8013017
:10AEB00001238DF8023079F097F904F5A045CDF81B
:10AEC0000300D5F8CC05CDF807100368DB6B984775
:10AED00010EE103AD5F8CC05CDF80B300368DB6ADC
:10AEE000984710EE103AD5F8CC05CDF80F3003682E
:10AEF0001B6B984710EE103ACDF8133004F58053D1
:10AF0000D5F8CC05D3F8EC33ADF8173003685B6B9C
:10AF1000984704F5745010EE103A1D22694610301F
:10AF2000CDF819304AF06CF909B030BD2DE9F04F79
:10AF30002DED068B06462E4890F9E838002B91B08F
:10AF40004DDD043076F0A8FA06F574571037044644
:10AF5000002849D006F5405393ED148ADFED257A99
:10AF600093F8E44028EE278A79F03EF906F5265555
:10AF70008146E86F8846FDF7CFFA8246D5F8800013
:10AF80008B46FDF7C9FA41EC190BD5F88400FDF7A3
:10AF9000C3FA41EC1A0B06F56350283005F020FD8A
:10AFA00010EE100AFDF7B8FACDE90E0118EE100AFE
:10AFB0008DED0CAB8DED0A9BCDE908ABFDF7ACFA3E
:10AFC0000D4B01930D4B0093CDE90601CDE902989D
:10AFD0000B4B0C4A0C49049438464AF011FD11B051
:10AFE000BDEC068BBDE8F08F9FED088ABCE700BF83
:10AFF000B8550120E02E6542F0500C08F8500C08BE
:10B00000B0500C08B8500C08EB500C085241C07FEF
:10B0100070B52DED028B00F529558AB00435044634
:10B02000304B0093694628466BF0AEFF2122002189
:10B0300001A8A6F049F9A3238DF8043095238DF8D3
:10B04000053002238DF8063079F0CEF804F5405330
:10B05000CDF80B10D3F8F83CCDF80700B3F9083061
:10B06000ADF80F3004F526533C339FED1F8A1B6A61
:10B07000CDF8113004F5A043D3F8CC0503689B6BE1
:10B08000984710EE103A2846CDF81530009BCDF8C1
:10B0900019306BF07BFD20EE080A04F58F5510EE99
:10B0A000103A08352846CDF81D3007F0CDFE06468B
:10B0B000284607F0CDFE00F11801304622F0B8FA1C
:10B0C00020EE080A04F5745010EE103A212201A96E
:10B0D0001030CDF821304AF093F80AB0BDEC028B65
:10B0E00070BD00BF5241C07FE02E654270B590F840
:10B0F000F32B00F510630C2101FB023300F52955F9
:10B100008AB004350446D3F868611D4B019301A948
:10B1100028466BF0CDFE1D22002102A8A6F0D4F82F
:10B12000A3238DF8083095238DF8093079F05CF869
:10B1300004F54053CDF80B00D3F8FC3CCDF80F10CC
:10B14000B3F90830ADF8133004F526533C332846E4
:10B150005B6ACDF815306CF085F810EE103A04F506
:10B160007450CDF819301D22019BCDF81D3002A975
:10B170001030CDF821604AF043F80AB070BD00BF2E
:10B180005241C07F13B5044600F57450103004F5E9
:10B190008054019049F0B4FA019849F049FB94F9C0
:10B1A0001030019823B102B0BDE8104049F0E8BB6F
:10B1B00002B010BD10B500F5A0430446D3F8CC058D
:10B1C00003681B68984704F58053C1B204F57450B6
:10B1D00093F8E82E10304AF0C1F904F58F5008308A
:10B1E00009F0CCF804F58870BDE8104013F042BEB9
:10B1F00000F574500249952210304AF027BD00BF77
:10B20000E0730C0800207047002070470020704752
:10B21000002070470020704708B500F5A040D0F826
:10B22000CC0503681B689847C0B208BD00F5A04371
:10B2300000F5B840D3F8CC3558301B1A5842584165
:10B2400070470000F0B500F5F9540C34B5B0054670
:10B25000204641F0E3FC654E28B105F58053B3F973
:10B260002C3F102B15D037686149386C03681B6878
:10B27000984756F04DFF3FF0BFFF102314A920461A
:10B28000ADF8503042F074FA386C5A4903681B68C4
:10B290009847102314A92046ADF8503042F044FAE4
:10B2A00078F090FF044641F089FA534800222421A7
:10B2B00041F014F841F0E2FD504A13881A2143F09E
:10B2C00002030020138056F067FD0220462156F04D
:10B2D00063FD284601F074F840B105F53C501E238B
:10B2E00014A934308DF8503042F0D2F956F044FBB6
:10B2F00033681E6C33681F6878F064FF021B404C93
:10B3000040493046B84794E80F0004AE86E80F0085
:10B3100002A9304640F004FFF0B104F1100314AA72
:10B32000183418685968164603C60833A3423246D3
:10B33000F7D118681B79306033719DF808300C2BF9
:10B340000AD834AA1344079813F8803C00EE103A48
:10B35000B8EE400A41F020FF2B4C94E80F0008AEF5
:10B36000103486E80F0094E80F000CAF87E80F0058
:10B3700003A9304640F0D4FE014698B30021B7EE51
:10B38000000A304640F018FF2049802214A8A5F09A
:10B3900051FF082114A8002240F0A0FF05F5FB5042
:10B3A00010A9083040F056FDD0B140F6E5730024F6
:10B3B00005F5E651CDE90034154ABDF840002523D6
:10B3C0000C3140F09FFF40F6D17305F5F151009329
:10B3D000104ABDF84000019411230C3140F092FF57
:10B3E00035B0F0BDB7EE000A3846CBE7B0250120F6
:10B3F000C8860C08EC860C0808870C08B886012063
:10B4000098480C08F3860C08B8480C08D8480C0873
:10B4100028A70C08C4740D082DE9F341044664F014
:10B42000A9FF04F15C0054F015FF414E414BE36568
:10B430007C25601955F08CF866512C35B5F54F7F99
:10B44000F7D104F54F7056F01DFD04F5EA606EF07B
:10B45000FFFD04F60C0104F509650846019169F049
:10B4600071FE0199284669F0BFFF04F6DC272946E2
:10B4700004F6542076F0B0FE38466BF0A5FA0021B1
:10B4800004F6D46070F0EAFA04F579605FF0BCFC71
:10B4900004F57D6071F0DCF804F5835008305CF051
:10B4A0001DFF04F5845004F58058043042F016FA6C
:10B4B00004F5D956204BC8F8843004F5845004F5BF
:10B4C0008C55103504361C3075F09EFF32463946D7
:10B4D00028466DF085FD194BC8F8903105F5F560EB
:10B4E0000DF0D2FF05F5F7600DF0CEFF05F5F96020
:10B4F0000DF0CAFF05F5FB600DF0C6FF04F5CC505A
:10B5000005F0FEF904F5CE5004305FF0D5F9394668
:10B5100030466CF05FF804F5E750143003F07AFC25
:10B520002046074941F0A4FA204602B0BDE8F08168
:10B530009C920C08B0920C08784D0C0878930D087A
:10B5400048890C080069C0F3401070470F299DBF5F
:10B550002C2303FB0100203000207047014B93F99E
:10B56000600F7047B8350120024B93F8D40500F006
:10B5700001007047B875012008B503689B689847BB
:10B5800080F00100C0B208BD014BD3F8F80C704741
:10B59000B855012008B53AB1022A10D1BDE80840DB
:10B5A0000748012205F06CBF064AD2F8CC258A4232
:10B5B00005D154F097FFBDE8084054F04FBF08BDD7
:10B5C000B8250120B875012030B589B01C220021B2
:10B5D000104D03AC01A8A5F077FE20460DF054FFF6
:10B5E00005F5AA630FCB84E80F00102301A905F528
:10B5F0004960ADF8063022F073FF40B1064BB5F854
:10B60000C02C1B680549186C03681B68984709B073
:10B6100030BD00BFB8750120B0250120B4900C08E2
:10B6200001290A4603D0022900D019B90122024893
:10B6300005F042BA704700BFA05E012000290DDB73
:10B64000074890F8C42DCBB29A4207D3D0F8C03D3A
:10B650000122595CA0F5405005F08ABF704700BF39
:10B66000B85501204A2910B40B4604462BD021DCE2
:10B67000102910DC032917DD01208840144910E04F
:10B68000A3F1C9000121814040F2434001420BD0A7
:10B690005DF8044B70472A39152905D801208840E8
:10B6A0000C4901400029F3D1204619465DF8044BAE
:10B6B00055F05CBDD329F7DCC829E1DC6129E7D06E
:10B6C0009B29F1D1E4E75DF8044B1146FFF7A8BFD1
:10B6D0009000010001FF22000B464A2BF7B50646F9
:10B6E00011465FDC292B0FDC072B70D056DC002BBA
:10B6F0005DD0042B00F0AC800A463046194603B0FA
:10B70000BDE8F04055F09ABAA3F12A02202AF3D8F6
:10B7100001A050F822F000BF55B80108F9B60108A1
:10B72000F9B60108F9B60108F9B60108F9B6010839
:10B73000F9B60108F9B6010827B8010833B80108BD
:10B740003FB8010845B801084BB801085BB80108CB
:10B7500061B8010867B80108F9B601086DB80108B9
:10B76000F9B60108F9B60108F9B6010873B801087D
:10B77000F9B60108F9B60108F9B60108F9B60108E9
:10B78000F9B60108F9B60108F9B60108F9B60108D9
:10B79000F9B60108F9B6010881B80108102BABD140
:10B7A0004D4949E09B2B6FD003DC612BA4D10124D0
:10B7B0000AE0A3F1C9050A2D9ED8012404FA05F573
:10B7C00040F24342154297D0204603B0F0BD022A12
:10B7D000EDD1424DD5F8CC3505F65847BB42E6D001
:10B7E0003F486CF0FDFA044678B905F5496022F04F
:10B7F00097FC52F0F1FD3B4A05214CF0DFFB21465E
:10B80000A5F5A04000F03CFED1E7D5F8CC35BB4211
:10B81000CDD0B5F9C03C13B93046FFF7D5FE304660
:10B82000FFF7D2FED0E70229C1D12F4800F074FF04
:10B83000BDE70A462D493046FFF7ACFEB7E70A469A
:10B840002B49F8E70A462B49F5E70A462A49F2E769
:10B850002A49F1E70A462A49EDE70A462949EAE773
:10B860000A462949E7E70A462849E4E70A462849FB
:10B87000E1E71A4BD3F8CC0503681B6D984796E7B0
:10B880003046FFF7CDFE92E72248019276F0A0FD08
:10B8900000288CD112486CF0A3FA0446002886D008
:10B8A0000E4BD3F8CC2503F6186082423FF47FAFED
:10B8B00003F638339A423FF47AAF019902297FF4B4
:10B8C00076AF1A2056F074F952F086FD124A0199AB
:10B8D0004CF074FB78E700BF10820120B87501209E
:10B8E000E4630120C8900C08B825012028810120BC
:10B8F000608101201C840120F080012058840120F7
:10B900009484012098810120D0830120D0840120DB
:10B910000C850120744F0120E1900C080020704735
:10B920000020704708B50368DB68984780F0010085
:10B93000C0B208BD01207047012070479FED010A89
:10B94000704700BF000000000020704701207047D2
:10B950000020704770470000102070470048704773
:10B96000CC920C08704700000020704701207047FF
:10B97000002070470020704703685B68184700008C
:10B9800000F07CBF00F0D0BD57F03CBB47F080BC5E
:10B990001CF074BD49F088BD05F0DCBB04F06ABB47
:10B9A00001F086B801F012BA0BF0F4BE56F094BE66
:10B9B0005CF0E2BC58F096BF0BF078BB54F012BDBF
:10B9C00054F036BA52F028BA05F0C0BB05F0DCBB23
:10B9D00075F0F0BE6EF044BD0AF082BC14F0F0BC0D
:10B9E00000F090BC05F078BC04F066BF01F0BCB973
:10B9F00002F08CBD02F038BD02F0A2BA70B51F4B48
:10BA0000036000F5A0430446D3F8E4041C4AC3F8DD
:10BA10003C2308B10EF09CF81A4B236004F58053C8
:10BA200093F8C02C42B9D3F8BC5C2DB128461BF06A
:10BA300029FC28460EF086F804F5885008306AF094
:10BA400053FB04F58050103057F086F804F6145577
:10BA500004F6B446B54204D0183D28461BF058F908
:10BA6000F8E7094BC4F8003904F6EC104BF018FB6A
:10BA700004F668104BF014FB204670BD68900C086B
:10BA8000B4550D08B8370D08B4F80C08424B70B522
:10BA9000044640F8043B57F0D5FB04F110000BF0CE
:10BAA0000BFC04F1600047F091F904F5887012F086
:10BAB000DDFB04F592600AF0C7F904F2BC5010F007
:10BAC000F3FB04F510601CF08DFB04F5496057F0A2
:10BAD00079F904F5566042F0BFF904F58050103052
:10BAE00057F022F804F582500C300CF02DFE04F5CE
:10BAF000885008306AF0E4FA04F58950043047F0C1
:10BB000013FD04F58B5004F58056183058F050FDA5
:10BB10000025224A86F8885104F58C5304F58C5090
:10BB20000833183013603DF0ABF904F58F50294607
:10BB3000083006F0C1FF04F5BA5063F003FB04F5CA
:10BB4000BA500C3063F0DEFF04F5DA50103067F0C5
:10BB500041FA04F5E350083069F082FE04F5E6503E
:10BB60000C3005F04BFE04F5F1500C305CF074FF26
:10BB700086F8E85E0A4D04F5F8506AF073FE2B680B
:10BB800013B1084878F0F8FA2046074940F070FFF2
:10BB90002C60204670BD00BFB8370D08788F01209B
:10BBA00008870120D4920C0810370D08034808605C
:10BBB0002321117008221A60704700BFFC960C0800
:10BBC00070B50446254601F09FFA1F4B45F8383BF7
:10BBD0001E4B2465C4E915341D4BC4E917341D4BB5
:10BBE000636604F178000DF04FFC04F194000DF051
:10BBF0004BFC04F1B0000DF047FC4FF6FF76164BFE
:10BC0000C4F8C430A4F8C86004F1CC000DF03CFCCA
:10BC1000124B13491D60284640F02AFFA4F87060BB
:10BC2000A4F88C6004F59E700DF02EFC04F5BA703B
:10BC30000DF02AFC04F5C8700DF026FC04F5D67052
:10BC40000DF022FC204670BD809D0C08F1B9010862
:10BC5000F5B90108F9B901080000FFFF00860120CD
:10BC6000A8050D08F0B5044685B0FFF70FFF864B19
:10BC70002360864B8648186004F5F9520832002389
:10BC800014269DB206FB05010133097C0029F8D179
:10BC9000804B1D80804B196811B1804878F06CFA98
:10BCA00004F5FB5008301A60FFF7B6FB04F573503B
:10BCB00030306EF0B3F904F5F95104F574501031D9
:10BCC000103049F0C9F904F5405504F5FB53013330
:10BCD000C5F8C03D04F57750062385F8C43D08300B
:10BCE00056F036FB04F578502C306CF045F86C4B70
:10BCF000C5F82C3E04F57950243004F5A04571F0C8
:10BD00001BF804F5A646674BC5F83C3304F5A74776
:10BD1000603644373046143650F0BCF9BE42F9D193
:10BD20001E23C5F8E8340023A5F8EC3440F2CC60BB
:10BD30000DF00CFFC5F8E40404F5A940703077F06D
:10BD400095FB04F5AA40343077F090FB564A13680F
:10BD50001BB904F5A6433C331360544BC5F83C3380
:10BD600004F5AA4050300DF08FFB04F5AA404FF4C3
:10BD7000805160300BF078FB4D4B039304F5B646D1
:10BD80004C4BC5F8CC650294009304F5AC4004AB71
:10BD900013E90C004FF4007118300AF033FE3046FE
:10BDA00001F0B2F9444BC5F8003B3046383001F0A1
:10BDB000ABF9424BC5F8383B3046703001F0A4F97E
:10BDC0003F4BC5F8703B04F5B740283001F09CF9B3
:10BDD0003C4BC5F8A83B04F5B740603001F094F93E
:10BDE000394BC5F8E03B04F5B84048300DF04CFB4A
:10BDF00004F5BC4604F5B84018365830FFF7E0FEAD
:10BE0000304601F081F9314BC5F8183E06F1380093
:10BE10000DF03AFB04F5BC40643001F075F92C4B91
:10BE2000C5F8643E04F5BD40203001F06DF9294BA2
:10BE3000C5F8A03E04F5BD405C3001F065F9264B25
:10BE4000C5F8DC3E04F5BE40183001F05DF9234B27
:10BE5000C5F8183F04F5BE40543001F055F9204BA9
:10BE6000C5F8543F04F5BF451435B0EE000A284626
:10BE70004BF088FBB0EE000A05F110004BF082FB9E
:10BE8000204605B0F0BD00BF68900C08C8860120B0
:10BE9000D88B0C08C486012084860120E8920C0807
:10BEA000384D0C08B4550D08F48901203C500C089D
:10BEB000EDB90108B8990C080C930C08FC9F0C080C
:10BEC000DCA00C08849B0C08949F0C086CA00C0848
:10BED000BCA20C0858A10C0854A20C08E49E0C0843
:10BEE000C8A10C0810B500F5FB5400F526503C30F5
:10BEF00077F042FA08340146204664F019FB2046E8
:10BF0000BDE8104064F0B4BAFFF7ECBF7FB504465B
:10BF100000F578502C3004F58F55FDF709FB0835F6
:10BF2000204605F0EDF90021284607F0B3FA04F5A4
:10BF3000AA415031284607F0C7F804F5A04604F599
:10BF4000805386F8E80593F8B41411F0010102D18A
:10BF5000204600F095FA002301A928460193029398
:10BF6000039307F05BF928B301A820F057FA06F213
:10BF7000146686ED000A0121204605F031FC28B147
:10BF80002046FEF787FE2046FEF7D0FF80212046A0
:10BF900005F026FC18B11DF0B1FD1BF0F3FF4FF4C6
:10BFA0008011204605F01CFC10B1284606F008FD63
:10BFB00004B070BD94F8E023B02302FB03332344A4
:10BFC00094F88A2493F81131002AD4D1022BD2D9C3
:10BFD000284607F015FBCAE7FFF798BF70B500F5D4
:10BFE0008053044693F9583F33B300F5A043D3F888
:10BFF000E0540DB378F0F0F804F5715393ED060AB0
:10C00000DFED0E7A9FED0E1ADFED0E0A451B20EED6
:10C01000270A4FF4BA701EF089FAFCEEC07A204667
:10C0200017EE903A9D42084ABDE8704034BF0023A5
:10C030000123022100F0BEBD70BD00BF00007A44A4
:10C040000000804F0000000059850C08FFF7C6BFB4
:10C0500038B50221044605F0C3FB50B1012120464A
:10C0600005F0BEFB28B92046FEF714FE2046FEF779
:10C070005DFF1021204605F0B3FB38B12046FFF7E5
:10C0800035F804F51A5038306EF05CFA202120465D
:10C0900005F0A6FB00B304F56A5520460C35FEF703
:10C0A000F9FE28466BF0DAFAB0B1284604F574556B
:10C0B00004F56A54103528346BF0C8FB04F14002D3
:10C0C00028466A2148F0ACFE04F1680228466B213C
:10C0D000BDE8384048F0A4BE38BD0000FFF7B8BF47
:10C0E00010B54FF40051044605F07AFB10B120461C
:10C0F000FEF78EFF4FF48041204605F071FB38B10A
:10C100002046FFF73FF804F51D50343069F016F96A
:10C110008021204605F064FB28B11DF0EFFCBDE84E
:10C1200010401BF053BF10BDFFF7DABF73B50446D4
:10C1300003682C4D9B6C04F578562C36984755F0C7
:10C1400091FC00213046FDF715FBA8713046264EC4
:10C150000123EB716BF044FE336828715B6D234A59
:10C1600093F89C306B7104F58055B5F8361F11704B
:10C1700013B9204600F0AAF933685B6D93F89C6010
:10C1800036B195F8EA3E1BB978F026F8C5F8EC0E02
:10C1900085F8EA6E04F5385604F5265596ED0D0A35
:10C1A0003C3528468DED010A76F012F9014604F57A
:10C1B00043509DED010A38306DF04CF896ED0D0AB4
:10C1C00028468DED010A76F003F99DED010A01463E
:10C1D00004F56A5034360C3002B0BDE870406BF0A4
:10C1E0007DBA00BF2D860120B0250120AD2201209F
:10C1F000FFF79CBF10B5094B1B78044623B100F52F
:10C20000295004306BF0D6F904F5A044D4F8CC05DD
:10C210000368BDE810409B68184700BF308A0120C2
:10C22000FFF7E8BF70B50A4B0446D3F8CC050368A6
:10C23000DB680E469847054640B104F5A044D4F8A3
:10C24000CC050368DB6B984786ED000A284670BD75
:10C25000B875012070B50A4B0446D3F8CC050368C5
:10C26000DB680E469847054640B104F5A044D4F873
:10C27000CC050368DB6A984786ED000A284670BD46
:10C28000B875012070B50A4B0446D3F8CC05036895
:10C29000DB680E469847054640B104F5A044D4F843
:10C2A000CC0503685B6B984786ED000A284670BD95
:10C2B000B875012038B5054B1C6823680A461D680F
:10C2C000034B01462046A847002038BDB025012079
:10C2D000B825012010B577F09FFB064C064B18607F
:10C2E0002046FFF7BFFC2046044A0549BDE8104040
:10C2F000A2F08ABAB8250120B025012038E5012036
:10C30000FDB9010813B500F5A043044693F8FD3AC2
:10C3100023B102B0BDE8104004F052B800F5295036
:10C3200001A904306AF0C4FD08B90023019304F5A3
:10C3300078502C306BF054FD014604F52650D4EDB6
:10C34000420A9DED010A3C3076F0C6FF02B010BDF6
:10C3500010B500F50053D1ED007A9FED167A90EDFF
:10C36000421A03F57362D2ED000A93F8BC3900F566
:10C37000405267EEC77A92ED3C0A9FED0F7A67EE66
:10C38000A07A20EE070A13F00C0F00F529500C4696
:10C39000A7EE870A14BF0121002160EE870A04304E
:10C3A0006AF022FCDFED057A20EE270A84ED000A10
:10C3B00010BD00BF0AD7233C35FA8E3C0000C842AE
:10C3C00000F5005090F9F40EC31E584258417047D2
:10C3D000F0B52DED028B044600F58F5087B0083084
:10C3E0000D46174609F08AF8064600283DD03FB1B1
:10C3F00004F5805292F8B43443F0020382F8B43466
:10C4000004F5B940103022F08BF8D5ED017A9FED9C
:10C41000197A9FED198AF8EEE77A04F5A64467EEDB
:10C42000877A3C3417EE900AFCF776F8D5ED037A5C
:10C43000F8EEE77ACDE9040167EE887A17EE900A04
:10C44000FCF76AF8D5ED027AF8EEE77ACDE9020159
:10C4500067EE887A17EE900AFCF75EF8074ACDE996
:10C460000001062120464BF0A9FD304607B0BDEC87
:10C47000028BF0BD0AD7233C95BFD633C4990C0874
:10C480007FB5054605F58F54684608340E460CF016
:10C49000FBFF204606F0BAFE18B90024204604B07F
:10C4A00070BD6946204606F00FFE0028F5D03246E2
:10C4B00069462846FFF78CFF04460028EDD005F5B5
:10C4C000385001213C306FF0BFFCE7E77FB500F545
:10C4D0008056054696F8B4349A0716D405F58F545D
:10C4E000684608340CF0D0FF6946204606F0ECFDA3
:10C4F00058B105F5926009F035FE96F8B434DB07C3
:10C5000005D46946204608F0F9FF04B070BD04F573
:10C510002F7168460DF040FAF6EE007AB4EEE70AA5
:10C52000F1EE10FAEDD5F0E72DE9F84300F5785675
:10C530002C362DED028B044630466BF051FC05463F
:10C5400030B9514B00221A80BDEC028BBDE8F88354
:10C5500004F5805797F9593F002BF2D004F5A0431A
:10C56000D3F8CC050368DB68984720B92046FFF76D
:10C5700027FF0028E5D004F5005898F9343F002B38
:10C580003ED007EE903A9FED417AF8EEE77A67EEFB
:10C59000877A97EDF77AB0EEC77AB4EEE77AF1EEE4
:10C5A00010FA0ADC97EDF67AB0EEC77AB4EEE77AC5
:10C5B000F1EE10FACCBF012500252046FFF700FF61
:10C5C00000B3002DC0D049F0B1FC0C21012249F08C
:10C5D00009FC2046FFF7F4FE04F5A6433C33014670
:10C5E000002840D02A4A002118464BF0E7FCBDEC59
:10C5F000028B30460122BDE8F8430C21FDF72CB92F
:10C600001D46DAE73DBB04F58F5909F10809484694
:10C6100006F0F6FF9FED1F8AB4EEC80AF1EE10FA9D
:10C620008FDA484606F010FCD0ED027AF0EEE77A99
:10C63000F4EEC87AF1EE10FA83DA08F6BC18D8EDF9
:10C64000097AB1EE047AF0EEE77AF4EEC77AF1EE09
:10C6500010FA3FF576AF0C4A138801339BB2132BC7
:10C660001380AED9AFE718460B4A4BF0A7FC04F590
:10C67000B64113223831204604F002FF97F9593FA2
:10C68000022B7FF461AFB2E77885012035FA8E3C4A
:10C69000E4990C080AD7A33DF5990C082DE9F04D53
:10C6A00088B0044649F042FC054677F09DFD04F54C
:10C6B000A0430746D3F8B43F04F5BF40B3F10008E8
:10C6C00000F1140018BF4FF001080E464AF0D0FFE9
:10C6D0000068FBF721FF824604F5BF4024308B46FB
:10C6E0004AF0C6FF0068FBF717FFCDE904ABCDE9C0
:10C6F0000601CDE90076054B054A0649CDF80880CC
:10C70000284649F08DF908B0BDE8F08D0C9A0C0868
:10C71000119A0C082D9A0C0873B5044600F5785050
:10C720002C306BF05DFB04F5A6453C3504F5A046C6
:10C7300048B90023164AC6F8B43F022128464BF0F8
:10C740003DFC02B070BD04F5295001A904306AF027
:10C75000AFFB0028EDD004F5BF409DED010A143079
:10C760004AF088FF04F5265304F5BF4093ED180AFC
:10C7700024304AF07FFF77F02FFD0023C6F8B40F76
:10C78000C6F8B83F2046FFF789FF024AD5E700BF49
:10C79000349A0C08509A0C0870B52DED028B00F5F8
:10C7A000A04686B0D6F8B43F0446002B53D000F51F
:10C7B000BF4024304AF05CFF90ED008A04F5BF4092
:10C7C00014304AF055FFB2EE047AD0ED007AB4EEA0
:10C7D000C78A04F5A645F1EE10FACDED057A05F10C
:10C7E0003C053CDB9FED217AB4EEC78AF1EE10FAEE
:10C7F00035D89FED1F7AF4EEC77AF1EE10FA2EDBF2
:10C80000FDEEC87A04F5FA5017EE903A0DF11301D7
:10C810000A308DF8133040F059FF04F5F95005A99E
:10C820001C3040F0F9FE04F5805202F63C7292F999
:10C830000E3010680393FBF76FFE039B0D4ACDE9A2
:10C840000001022128464BF0B9FB0023C6F8B43F93
:10C850002046FFF723FF06B0BDEC028B70BD064AF1
:10C86000022128464BF0AAFBEFE700BF0000C842B8
:10C8700000000034689A0C088B9A0C0837B500F554
:10C88000A0450446D5F8B43FA3B300F5295001A94B
:10C8900004306AF00DFB68B304F5BF40DFED160A03
:10C8A0009DED010A14304AF079FE04F5265304F593
:10C8B000BF4093ED180ADFED100A24304AF06EFEF7
:10C8C000D5F8B83F0D4A5343B3F1333F02D8204661
:10C8D000FFF7E4FED5F8B83F0133C5F8B83F77F06D
:10C8E0007BFCD5F8B43FC01AB0F5FA6F02D32046EE
:10C8F000FFF752FF03B030BD0AD7A33CCDCCCCCC60
:10C9000013B5044600F58F50083006F07FFCD8B10F
:10C9100001A9134806F04CFF04F578502C306BF059
:10C920005FFA9DF8043088B9DC06C3F300100BD41D
:10C930009DF805209107C2F3400005D41C07C3F3FE
:10C94000C00001D402F0010002B010BDD90603D42A
:10C950001A07C3F3C000F7D583F08000C009F3E7DE
:10C96000A037012070B500F5FA55D5ED077AF5EE40
:10C97000C07AF1EE10FA8AB004464FF0000305F1D8
:10C980001C0546D907930893099307AE06AB00F53B
:10C990008F50019303AA05AB04A90096083007F055
:10C9A0006DF9304621F0C6F9D5ED007A9DED047A97
:10C9B000DDED036AB4EEE70AF1EE10FAF4EEC77AA1
:10C9C000ACBF01230023F1EE10FAF4EEE67A77EE25
:10C9D000A76A98BF0133F1EE10FA98BF0133B4EEA5
:10C9E000E67A98BFDBB2F1EE10FA10DAF4EEC77A0D
:10C9F000F1EE10FA9CBF0133DBB2012B07D82046C1
:10CA0000FFF77EFF80F00100C0B20AB070BD0120C8
:10CA1000FBE70020F9E7000070B500F5A0450446EB
:10CA200095F8E4352BBB012685F8E46549F07EFADC
:10CA30003246112149F0D6F9D5F8CC0503685B6A76
:10CA40009847B0B104F5805393F95A3F8BB1022B4C
:10CA500006D004F5B64106223831204604F010FD18
:10CA600004F5A640034ABDE8704002213C304BF07B
:10CA7000A5BA70BDC14C0C0838B500F5A0430446FA
:10CA800093F8E4258AB1002583F8E45549F04EFA7D
:10CA90002A46112149F0A6F904F5A640034ABDE84B
:10CAA000384002213C304BF089BA38BDA49A0C08BA
:10CAB000F0B585B0054668460CF0E6FC05F58F50EC
:10CAC0006946083007F066F8D8B105F578502C3083
:10CAD0006BF086F9344C354E40B105F5FA53D3ED81
:10CAE000077AF5EEC07AF1EE10FA0CD8238823F419
:10CAF000FF7323F00103238028460023F373FFF71D
:10CB0000BBFF05B0F0BD2846FFF72CFF074688B3F2
:10CB10006378DB0705D423780133DBB2092B05D812
:10CB20002370637803F00103F373EAE7238823F4A7
:10CB3000FF7323F0010343F48573238049F0F6F972
:10CB40000222102149F04EF977F046FB6368C01AC3
:10CB500047F23053984209D905F5A640144A0221FC
:10CB60003C304BF02BFA77F037FB60602846FFF73C
:10CB700053FFD6E72378002BD3D0013B23702388C3
:10CB8000C3F30803B3F5807FCBD1637860F3000370
:10CB9000637049F0CBF93A46102149F023F9284651
:10CBA000FFF76AFFBDE700BF7C8501202D860120CD
:10CBB000BC9A0C082DE9F84F00F5A04591460446B3
:10CBC00095F8D4250F46002B71D042EA010385F871
:10CBD000D43522B91BB177F0FFFAC5F8D80595F81E
:10CBE000DC3553B195F8D4353BB904F5A640464A37
:10CBF0004B4606213C304BF0E1F995F8DC3595F8D1
:10CC0000D425134085F8DC35002B7BD1002A79D060
:10CC100077F0E2FAD5F8D835DFED3C6A04F5805AB2
:10CC2000C01A0AF5756307EE900A93ED007AF8EEE4
:10CC3000677A27EE267AF4EEC77AF1EE10FA61DD14
:10CC4000D5F8CC3504F5BD4808F12008434559D046
:10CC500004F5B6463836B34205D104F54053D3F84F
:10CC6000883ADB074ED504F5A64B95F8D435284A0B
:10CC700085F8DC350BF13C0B4B46042158464BF054
:10CC80009DF953F061FBD5F8CC2504F5B843583332
:10CC90009A4214D1012F0DD19AF9543F022B0ED193
:10CCA00058461C4ABDE8F84F04214BF087B922EAE8
:10CCB00001038CE7022F02D19AF9583FEEE79AF967
:10CCC0004C3F013B032B1DD8DFE803F00A1002178D
:10CCD00004F5BD4119225C31204604F0D1FB88B92E
:10CCE00019224146204604F0CBFB58B93146204674
:10CCF0001922BDE8F84F04F0C3BB04F5BD41192269
:10CD00005C31EFE7BDE8F88FCC9A0C0800007A445C
:10CD1000E09A0C08EC9A0C0810B5044677F052FA29
:10CD20000E4AB4F8B61013888B420D4B02D0118016
:10CD3000186010BD1B68C01A0A4B9842F9D904F557
:10CD400078542C3420466BF04BF80028F1D0204664
:10CD50000122BDE810400621FCF77EBD848501203C
:10CD600088850120400D0300013A10B50446042ACD
:10CD70002AD8DFE802F00A12031B200000F5BD41AB
:10CD800004225C3104F07CFBF0B904F5BD410422BF
:10CD90002031204604F074FBB0B904F5B6412046BA
:10CDA0000422BDE81040383104F06ABB00F5BD41F3
:10CDB00004225C31EDE700F57850BDE81040012217
:10CDC00007212C30FCF748BD10BD00002DE9F041D3
:10CDD00000F5F15600F580570C360446304697F8BA
:10CDE0006C8E5CF00BF9054604F578502C306AF037
:10CDF000F7FF00283FD0002D3AD097F92F3E53B3CC
:10CE0000294630465CF038F9DFED1C7AB4EEE70ACB
:10CE1000F1EE10FA18D897F92F3E013B032B1AD8E0
:10CE2000DFE803F00A12022104F5BD410A225C3159
:10CE3000204604F025FB70B904F5BD410A222031DB
:10CE4000204604F01DFB30B904F5B6410A22383102
:10CE5000204604F015FB49F069F82A460921BDE88F
:10CE6000F04148F0BFBF04F5BD410A225C31E7E75D
:10CE7000B8F1000FEFD1BDE8F08100BF0000C8425B
:10CE80000120704700207047012070470120704743
:10CE900010B50368DB680446984748B1E368DFEDE6
:10CEA000067A03F5C95393ED020A20EE270A10BD56
:10CEB0009FED020AFBE700BF0AD7233C00000000F9
:10CEC00010B50368DB680446984748B1E368DFEDB6
:10CED000067A03F5C95393ED010A20EE270A10BD27
:10CEE0009FED020AFBE700BF0AD7233C00000000C9
:10CEF00010B50368DB680446984728B1E36803F57A
:10CF0000C95393ED030A10BD9FED010AFBE700BF73
:10CF10000000000010B50368DB680446984728B19C
:10CF2000E36803F5C95393ED000A10BD9FED010AB4
:10CF3000FBE700BF0000000008B50368DB68984706
:10CF400020B1BDE80840024803F06EBE08BD00BF36
:10CF5000A05E012070B52DED028B654E88B0D6ED38
:10CF6000420A8DED030A0446806A0D466AF088F98C
:10CF70008DED030A75B3E06800F57965A06A6AF083
:10CF800053F96368D6ED421A93ED7E1AF6EE000A65
:10CF900060EE200A28469FED570A03A95FF07AFA4F
:10CFA000E06800F5CC5003F0D5FD98B1E56877F066
:10CFB00013F9D5F8B43FC01AB0F5FA7F0AD206F5D6
:10CFC000A043D3F8CC0503F6A833984202D00368F7
:10CFD0001B6D9847484D9DED030A95F9E8280023FD
:10CFE000002A049328DD05930693079307AB05AA4F
:10CFF00004A9009305F6E80006AB03F083FF9DED5E
:10D00000050AA5F2446075F09BF99DED060AA5F2AC
:10D01000446075F0A5F99DED070AA5F2446075F02E
:10D02000AFF9E0689DED040A00F6542075F038F978
:10D0300008B0BDEC028B70BDDFED307ADFED308AD9
:10D040009FED308AB0EEC00AB4EEE70AF1EE10FAB6
:10D050001FD4E368A06A93F8543A5A0745D490F86D
:10D060001013D6ED421A9DED030A1B07A36858BFA3
:10D0700090F8102393F91E50D3ED040A01EE105AD4
:10D08000B8EEC11A48BF012221EE281A6AF054F9FD
:10D090001DE0A5F54050FFF793F90028D9D1A2680B
:10D0A000E36892ED040A93F8541A92F91E3096ED53
:10D0B000421AA06A07EE903AF8EEE77AC1F3C0028E
:10D0C00067EEA80A07ABC1F380016AF0E3F920EE2E
:10D0D000080A07488DED040AFFF772F90028A0D06E
:10D0E000034804A9FFF734F99BE70121B9E700BF22
:10D0F000B825012000000000B855012000000034D0
:10D100000AD7233C0000C8420C4A02600C4A426025
:10D1100002F6445102F55862C2600A4A02610432C2
:10D120004261043282610432C2610432026204321A
:10D130004262054A81608262704700BF149B0C08FE
:10D14000A0370120B0620120FC4F012003689B6DD5
:10D150001847000037B51D4B1B685B6D93F89C307A
:10D1600004460BB301A91A4806F022FB1948FFF741
:10D17000C7FB054620B1184B93F8E45585F001052F
:10D18000236820465B6A984700B14DB1236820466A
:10D190009B6A984740B13DB99DF804309B0703D482
:10D1A0000025284603B030BD236820465B6D9847B4
:10D1B00005460028F5D0E368084803F580530022AF
:10D1C00083F8052903F044FCEBE700BFB0250120FC
:10D1D000A0370120B8250120B8750120A05E0120EC
:10D1E00070B52DED028B304C94F8D435DB070D462D
:10D1F000164605D500230B601360BDEC028B70BD95
:10D20000A4F58043A4F5005493F94B3F012B20D0A3
:10D21000032BD4F8FC3CB3F9083007EE903AF8EE53
:10D22000E77AC2ED007A35D0002BD4F8F83CB3F998
:10D230000830FFEE007AB7EE007AB8BFB0EE677A3A
:10D2400007EE903AF8EEE77A67EE877AC5ED007A56
:10D25000D3E7D4F8F80C53F04DFAD4F8FC0CB0EE48
:10D26000408A53F047FA78EE007AB6EE007A67EE1D
:10D27000877ADFED0E6A38EE408A67EEA67A28EEEE
:10D28000078AC6ED007ADFED0A7A28EE278A85ED57
:10D29000008AB2E7D4F8F83CB3F9083007EE903AC8
:10D2A000F8EEE77AD2E700BFB87501200000C84267
:10D2B00000A08C4570B506462DED028B0D46144638
:10D2C000FFF78EFFF06800F6542075F081F8A0B3E8
:10D2D000DFED317A95ED000A712080EE270AB7EE76
:10D2E000001AFFEE000A1DF021F9DFED2C7AB0EEF6
:10D2F000408A94ED000A722080EE270AB7EE001AE9
:10D30000FFEE000A1DF012F9B0EEC88AB0EEC00AB6
:10D3100038EE000AF7EE007AB4EEE70AF1EE10FA02
:10D320000BDD95ED007AC7EE007AC5ED007A94ED3D
:10D33000007AC7EE007AC4ED007A194BF068D3ED9D
:10D34000420A94ED000A00F6542075F029F8DFED4A
:10D35000157A94ED007AB4EEE77AF1EE10FAB4EEB5
:10D36000E70A94BF01220022F1EE10FA94BF0123D4
:10D3700000239A420BD0B36893F91F3033F00203B5
:10D3800002BFD5ED007AF1EE677AC5ED007ABDEC0B
:10D39000028B84ED000A70BD00A08C450000C842DD
:10D3A000B8250120000000B40A4B93F8D425D20719
:10D3B0000DD4A3F50053D3F8003D43B1B3F90830C1
:10D3C00007EE903AF8EEE77AC1ED007A7047DFEDAC
:10D3D000027AF9E7B87501200000000070B5C36952
:10D3E000054618680E46144658B153F043F986EDC9
:10D3F000000A2B6A186838B153F03CF984ED000A32
:10D4000070BD00230B60F4E700232360F8E7000001
:10D4100010B5436A18680C4620B153F02BF984ED1F
:10D42000000A10BD00230B60FBE70000C36851B188
:10D4300003F6887292ED000ADFED057AB4EEE70A92
:10D44000F1EE10FA03DA03F5805393ED650A7047A5
:10D4500000000034C36803F5805383F80519704752
:10D4600030B52DED028B404D9FED408A83B00023F7
:10D47000044628468DF80330FEF7A2FFD4E90223C4
:10D48000DFED3B0A93F8541A92F91E30002850D071
:10D4900001EE103AB8EEC11AA06AD5ED421A9FED1E
:10D4A000350A21EE201AD2ED040AC1F3C002C1F3FD
:10D4B000800169F041FF20EE080A01A928468DEDA0
:10D4C000010AFEF745FFE0689FED280A00F65420A8
:10D4D00074F036FFE0689FED270A00F6542074F0E0
:10D4E0003FFFE0689DED010A00F6542074F0D8FE7D
:10D4F0009DF80330ABBBE368D5ED420A93F8541AAC
:10D500009FED1C0AA06AC1F3400201F0010169F01D
:10D510004FFDE068DFED187A012120EE270A00F6C2
:10D52000542074F0B7FE9DF8030003B0BDEC028BED
:10D5300030BD07EE903AF8EEE77A92ED040A95EDE9
:10D54000421AA06AC1F3C00267EEA00A0DF10303FC
:10D55000C1F3800169F09EFF20EE080A8DED010AFB
:10D56000B1E79FED040AD4E7B82501200000C842C6
:10D570000AD7233C0000000000A08C45B7EE007ADB
:10D58000F4EEC70AF1EE10FA18DCDFED107AF4EED3
:10D59000E70AF1EE10FA11D4C368DFED0D6A03F566
:10D5A000D853D3ED067AF4EEE67AF1EE10FAB6BF70
:10D5B000C7EE207AB0EE670A20EE270ADFED050AF3
:10D5C00040F28110B3EE0E1A1CF0B0BFCDCC4C3D32
:10D5D0000000003400000000F8B52DED028B324C45
:10D5E0000546D4F8F80C0F46164653F083F8B7EE0C
:10D5F000001AFFEE000AA5201CF098FFD4F8FC0CDE
:10D60000A4F50054B0EE408A53F074F8A620B7EEAB
:10D61000001AFFEE000A1CF089FF94F94B3F012B22
:10D62000F0EE408A09D178EE008A38EE407AF6EEC4
:10D63000007A68EEA78A27EE278AF0EE680AB0EE35
:10D64000480AA1F029FCDFED197A20EE270A1CF028
:10D6500001FF87ED000A28EE080AA8EEA80A1CF0D0
:10D6600081FEAB68DFED120A93F91E20F7EE007A17
:10D67000B4EEE70AB0EE408AF1EE10FA58BFB0EE11
:10D68000678A07EE902AF8EEE77A93ED040A67EED0
:10D69000A00A2846FFF772FF20EE080ABDEC028BB5
:10D6A00086ED000AF8BD00BFB8550120A00CB345B7
:10D6B0000AD7233C70B52DED028B044682B0154687
:10D6C00001AA0E46FFF78CFDA3689DED010A93F9B0
:10D6D0001E20DFED200A07EE902AF8EEE77A20EE12
:10D6E000208A204667EEA00A93ED040AFFF746FF62
:10D6F00028EE000A184B85ED000AE068D3ED420AD7
:10D7000000F6DC2069F0BCFDDFED147A95ED007ABF
:10D71000B4EEE77AF1EE10FAB4EEE70A94BF012214
:10D720000022F1EE10FA94BF012300239A420BD09D
:10D73000A36893F91F3033F0020302BFD6ED007ADD
:10D74000F1EE677AC6ED007A85ED000A02B0BDEC15
:10D75000028B70BD0AD7233CB8250120000000B41D
:10D7600030B52DED028B83689B7F053B5F2B83B02B
:10D770000546F0EE408A0C4621D801AA6946FFF71B
:10D780002FFDAB68DFED200A93F91E209DED018A85
:10D7900093ED040A07EE902AF8EEE77A28EE208A45
:10D7A000284667EEA00AFFF7E9FEDFED187A28EEBB
:10D7B000000AB4EEE70AF1EE10FA03DBE4B1B0EED2
:10D7C000680A0DE0DFED127AB4EEE70AF1EE10FA26
:10D7D0000AD8002CF3D0B4EEE80AF1EE10FAEEDC31
:10D7E00003B0BDEC028B30BD002CF4D1B4EEE80ADE
:10D7F000F1EE10FAE3D4F3E7DFED057AB4EEE70AD1
:10D80000F1EE10FAF2D8DAE70AD7233C0000003430
:10D81000000000B410B52DED028B0368DB680446F0
:10D82000B0EE408A9847A8B1E36803F5805393F9B6
:10D830008C31002B0EDDBDEEC80A10EE103A1BB283
:10D8400000EE103A2369B8EEC00A186853F052F897
:10D85000B0EE408AB0EE480ABDEC028BE0680121D0
:10D86000BDE8104000F6542074F014BD10B5C36834
:10D8700093F8541A094B0446C1F34002806AD3ED71
:10D88000420A01F0010169F093FBDFED057A2046C1
:10D8900020EE270ABDE81040FFF7BCBFB8250120E5
:10D8A00000A08C4510B59FED107AC368DFED0F7AAC
:10D8B00093F8541A0E4B20EE070A044660EEA70AAE
:10D8C00020EE270A806A93ED421AC1F3400201F06C
:10D8D000010169F065FCDFED077A204620EE270A9A
:10D8E000BDE81040FFF796BF0AD7233C35FA8E3CBF
:10D8F000B825012000A08C4510B5836ADFED157AAC
:10D9000093EDAD1AB4EEE71AF1EE10FAD8BFB0EE0F
:10D91000671ADFED117A21EE271A0446F1EE410A6B
:10D920004FF4F2701CF002FEE368A06A93F8541AF8
:10D930000A4BC1F34002D3ED420A01F0010169F044
:10D9400047FCDFED077A204620EE270ABDE81040AD
:10D95000FFF760BFCDCCCC3D0AE81C41B8250120C3
:10D9600000A08C4510293CD8DFE801F0090D3B11DF
:10D9700015191D203B24282C303B3B34380000F582
:10D98000B6407030704700F5B7402830704700F55A
:10D99000BC406430704700F5B6403830704700F541
:10D9A000BC401830704700F5BE40FAE700F5BE40B5
:10D9B0005430704700F571501C30704700F5B84086
:10D9C0005830704700F5BD402030704700F5BD402D
:10D9D0005C30704700F5B7406030704700F5B640E6
:10D9E000704700207047000082B073B50E4606A94C
:10D9F00081E80C00C5680446DDE908018DE80300F4
:10DA000006AB05F58C500CCB314610306CF0D2F9DA
:10DA100040B1E36803F5C95310331B68E362002388
:10DA200084F8303002B0BDE8704002B070470000AA
:10DA300070B52DED028BC368554D03F5805303F689
:10DA40000C1293F8051992ED000A0029B7EE007A3E
:10DA5000FFEE007A08BFF0EE477A044682B027EE68
:10DA6000800AFFF77DFEE06841F29016B0EEC00A32
:10DA700030446BF0EFFAE06895ED420A30446CF008
:10DA8000B3F9E06800F5C953103300F5CC501B68BA
:10DA9000E36203F05FF878B1E66876F09DFBD6F8B4
:10DAA000B43FC01AB0F5FA7F06D205F5A045D5F807
:10DAB000CC0503681B6D9847E368226803F5C853DB
:10DAC000D26D93ED060A002120469047E06800F5EC
:10DAD0008C5010306CF02AF9E06800F5CC50B0EEB4
